:400000000080002011000000010300000103000008B5044B1A6803F53F5302331A6000F077F900BFFA46004010B5054C237833B9044B13B10448AFF300800123237010BDFF
:400040004881FF1F00000000400D0000084B10B51BB108490848AFF300800848036803B910BD074B002BFBD0BDE81040184700BF000000004C81FF1F400D0000C880FF1F68
:400080000000000000B585B019238DF804301E238DF8053009238DF806300B238DF8083002238DF80C3040F2E973ADF80E3062B601A800F053FB00F0FFFA00F071FB00F009
:4000C0003FFB00F067FB00F065FB1E28FBD900F0DDFDB0FA80F0400900F0CCFDF3E700BFFEE700BFF0B40022174611E050F82760F3B226F0FF0608E001EB420511F81240CE
:400100006D78A5550132013BDBB2002BF4D10137052FEBD9F0BC7047064B1B78DBB203F00701054A11701B09013213704422034B1A707047CF0100496E5800407658004029
:4001400008B50A46002100F0F2FD08BD38B52F4B1D78EDB202212E4A117008214FF040221170F32102F20A32117003221A708422A3F28F331A700522013B1A70254C04E06E
:400180004FF4F07000F08CFD013C24B1224B1B7813F0200FF4D01D4B1D700322A3F593631A701E4B1B78DBB21D4A137008221D4B1A8041F25122023B1A80002419250CE07F
:4001C000194B1B7803F0010343EA440404F003044FF4F07000F064FD013D0DB1032CEFD115B90320FFF77CFF104B4FF480721A8007221A7000220E490A704820023108707D
:400200001A700222033B1A7038BD00BF9846004000430040A08601000843004008010049A14600402242004025420040044000400640004008B500F06FFD08BD38B572B680
:40024000224A137843F00403137000240CE0204D630019194A0011462A44084691882858FFF76EFF0134E4B2082CF0D919494FF09040FFF737FF184A137843F00203137052
:400280001032137843F002031370082213491448FFF7D0FF082213491348FFF7CBFF134A137843F008031370114C61232370FFF74DFF8123237001220E4B1A70FFF72CFFB1
:4002C0000E220D490D48FFF7B5FF38BDE8460040440D000018000048035001402C000048125100403400004822510040224300400048004004000840A0430040B0430040BC
:4003000008B500F0DDFC03680C2B00D1FEE7FEE708B5104E104D16E029686B68AC68002204E051F8040B43F8040B0432A242F8D1E868002203E0002143F8041B04328242BF
:40034000F9D11035013E002EE6D100F0BFFCFFF799FEFEE701000000BC0D000008B5104A104B1A60104A136843F40073136000230AE0032B03D80D4A52F8231000E00C4966
:400380000C4A42F8231001332F2BF2D90A4B1A780A4B1A70074A0A4B1A60FFF74FFF08BD0004FA050CED00E014ED00E000000000010300000080FF1FBC760040C080FF1F03
:4003C00008ED00E030B4022901D8013A92B20E4CA4FB0243C3F34F15C5EB9205C3F3CF142B1913440139094A525C02441A440848A2FB0001501A01EB50008008C0EBC00088
:40040000101AC0B230BC70471F85EB517C0D000025499224974A0023D3801179D3889BB20B449BB2D38053899BB2934AA2FB0312D2094FF4C87101FB12339BB283B18D4BCF
:400440005B8913F0030F12D18A4B5B899BB28A4AA2FB03125209642101FB12339BB233B1864A137843F002031370002310E0834A137803F0FD031370F7E77E48C28892B299
:400480007F491944097B0A4492B2C2800133DBB2784A127A013A9342EFD310B5774B1B7813F0020F0AD0734B1B7ADBB2022B05D9704AD3889BB201339BB2D3806D4C207963
:4004C000217A628992B2FFF77DFF0130C0B2E070E378DBB2012B04D9E378013BDBB2E37004E0644AD3780633DBB2D370614B9B78DBB20B2B05D8614A137803F0FB03137076
:4005000004E05E4A137843F0040313705B4B5B7813F0010F11D0574B1A7BD2B21B78DBB29A4205D1554A937843F00103937004E0524A937803F0FE039370504B5B7813F016
:40054000020F11D04B4B5A7BD2B25B78DBB29A4205D14A4A937843F00203937004E0474A937803F0FD039370444B5B7813F0040F11D0404B9A7BD2B29B78DBB29A4205D169
:400580003E4A937843F00403937004E03B4A937803F0FB039370394B5B7813F0080F11D0344BDA7BD2B2DB78DBB29A4205D1334A937843F00803937004E0304A937803F0A2
:4005C000F70393702D4B5B7813F0200F11D0294B5A8A92B2DB889BB29A4205D1274A937843F02003937004E0244A937803F0DF039370224B5B7813F0100F11D01D4B1A7C57
:40060000D2B21B79DBB29A4205D11C4A937843F01003937004E0194A937803F0EF039370164B5B7813F0400F11D0124B1A7DD2B21B7ADBB29A4205D1104A937843F04003E1
:40064000937004E00D4A937803F0BF0393700B4B5B7813F0800F1AD0064BDA8A92B25B899BB29A420ED1054A937843F0800393700DE000BFCC80FF1F1F85EB516481FF1FE3
:400680007C0D00000B4A937803F07F039370094B5B7803F0FF025BB1064B9B7832EA030306D1044B1A7842F008021A7000229A7010BD00BF6481FF1F08B50122054B1A6049
:4006C00000F0F6FA044A137803F0CF03137000F0F3FA08BD80E100E0824300400122014B1A60704700E100E00122014B1A60704780E100E008B5FFF78DFE0122054B1A60A4
:400700000549002000F072FA0721002000F082FA08BD00BF80E100E0B507000008B500F0C7FA054A137843F03003137000F0C4FA0122024B1A6008BD8243004000E100E066
:4007400008B5054BDB7823B9FFF7D4FF0122024BDA70FFF7E3FF08BD6481FF1F10B50446FFF7C2FF2278D2B2094B1A706278D2B25A70A278D2B29A702279D2B21A71227A42
:40078000D2B21A72628992B25A81FFF7A7FF10BDCC80FF1F014B1878704700BFCC80FF1F034B18781A7802F0F7021A70704700BF6481FF1F08B5042000F044FA954A1378B9
:4007C0000133DBB213701378DBB23B2B40F2D28153780133DBB25370002313705378DBB23B2B40F29B8193780133DBB29370002353709378DBB2172B40F254811346127937
:400800000132D2B21A7100229A70DA8892B2013292B2DA80DA780132D2B2DA70DB78DBB2072B02D901227B4BDA707B4B1B7813F0020F0ED0774B1B7ADBB2022B09D1754B6A
:400840001A79D2B21B7A013B7449CB5C01339A4222D8714B1B7813F0020F0DD06D4B1B7ADBB2022B08D06B4A1379DBB2127A013A6A498A5C93420FD8674B1B7813F0020F40
:4008800040F09D80634A1379DBB2127A013A63498A5C934240F293805E4A137A0133DBB2137201231371137ADBB20C2B5BD953899BB201339BB2538101231372D3805389B4
:4008C0009BB2574AA2FB0312D2094FF4C87101FB12339BB283B14F4B5B8913F0030F11D14C4B5B899BB24E4AA2FB03125209642101FB12339BB22BB1474A137843F002031A
:40090000137004E0444A137803F0FD031370454B1B7813F0800F12D0434B5A8992B23D4B5B899BB29A4205D1404A137843F08003137004E03D4A137803F07F031370394B4A
:400940001B7803F0FF0263B1384B1B7832EA030307D1314A137843F0080313700022334B1A70334B1B782F4B1B7813F0400F12D02D4B1A7AD2B2274B1B7ADBB29A4205D1B3
:400980002A4A137843F04003137004E0274A137803F0BF031370234B1B7803F0FF0263B1224B1B7832EA030307D11B4A137843F00803137000221D4B1A701D4B1B78194B00
:4009C0001B7813F0080F12D0174BDA78D2B2114BDB78DBB29A4205D1144A137843F00803137004E0114A137803F0F70313700D4B1B7813F0200F22D00B4BDA8892B2054B03
:400A0000DB889BB29A4215D1084A137843F02003137014E0CC80FF1F6481FF1F880D00001F85EB516581FF1FD880FF1F6681FF1F6881FF1F664A137803F0DF031370654BEF
:400A40001B7813F0100F12D0634B1A79D2B2634B1B79DBB29A4205D15D4A137843F01003137004E05A4A137803F0EF031370594B1B7803F0FF0263B1554B1B7832EA03038F
:400A800007D1574A137843F0080313700022504B1A70544B1B78514BDB78DBB2012B01D1504B1B784D4B9B78DBB20B2B05D84C4A137803F0FB03137004E0494A137843F03B
:400AC00004031370434B1B7813F0040F12D0424B9A78D2B2414B9B78DBB29A4205D13C4A137843F00403137004E0394A137803F0FB031370374B1B7803F0FF0263B1344B82
:400B00001B7832EA030307D1354A137843F00803137000222E4B1A70324B1B782D4B1B7813F0020F12D02C4B5A78D2B22B4B5B78DBB29A4205D1264A137843F0020313701C
:400B400004E0234A137803F0FD031370214B1B7803F0FF0263B11E4B1B7832EA030307D11F4A137843F0080313700022184B1A701C4B1B78174B1B7813F0010F12D0164B1D
:400B80001A78D2B2154B1B78DBB29A4205D1104A137843F00103137004E00D4A137803F0FE0313700B4B1B7803F0FF0263B1084B1B7832EA030307D1094A137843F0080324
:400BC00013700022024B1A70064B1B7808BD00BF6681FF1F6581FF1FD880FF1FCC80FF1F6481FF1F6881FF1F01BE704770B504460E46074B1D681F2802D90020FFF7F4FFE3
:400C000004F01F04103455F8240045F8246070BD08ED00E038B504460D46072902D90020FFF7E2FF1F2C02D90020FFF7DDFF04F01F0000F1604000F564406D01EDB20570C2
:400C400038BD00BF38B5054600F032F8074B1978074A92F842300B4303F0070423EA050382F8423000F028F8204638BD904300406C81FF1F044A137803F0FD03400000F06C
:400C8000020018431070704720510040024B1878C0F34000704700BF21510040000000000230800803D000BF01380046FCD17047EFF3108072B6704780F31088704700BFD6
:400CC000014B1868704700BF4481FF1F0E4B70B51E460E4C0025E41AA410A54204D056F8253098470135F8E700F056F8084B094C1E46E41AA4100025A54204D056F82530EB
:400D000098470135F8E770BDA40D0000A40D0000A40D0000AC0D000010B5431E0A44914204D011F8014B03F8014FF8E710BD03460244934202D003F8011BFAE7704700007A
:400D400000000000005100401000305100404000C05100401000F0510040100000000140001000140140000800400140000A004C014000020050014020000000000302055C
:400D800000030501040602041F1C1F1E1F1E1F1F1E1F1E1F43000000F8B500BFF8BC08BC9E4670474D0000005D030000F8B500BFF8BC08BC9E46704729000000D00D0000B9
:400DC000C880FF1F80000000680000000000000000000000000000010100010001006C07000000010100010001006C070000000000000000000000000000000000000000B7
:400E0000000000000000000000000000940D000000000000000000000000000000000000000000000000000000000000000000000000000000000000000000000000000011
:400E4000000000000000000000000000E480FF1F000000000000000000000000000000000000000000000000000000000000000000000000000000000000000000000000F0
:400E80000000000000000000000000000000000000000000000000000000000000000000000000000000000000000000000000000000000000000000000000000000000032
:400EC00000000000000000000000000000000000000000000000000000000000000000000000000000000000000000000000000000000000000000000000000000000000F2
:400F000000000000000000000000000000000000000000000000000000000000000000000000000000000000000000000000000000000000000000000000000000000000B1
:400F40000000000000000000000000000000000000000000000000000000000000000000000000000000000000000000000000000000000000000000000000000000000071
:020000040003F7
:0200000480007A
:400000000240014001410140014201400343014001480140015101403380CC10A780A7802F04A780CA20AF8400020000000B0B000000000000020200000000000000000022
:400040000000000000000000000000000000000000000000000000000000000000000000000000000000000000000000000000000000000000000000000000000000000080
:400080000000000000000000000000000000000000000000000000000000000000000000000000000000000000000000000000000000000000000000000000000000000040
:4000C0000000000000000000000000000000000000000000000000000000000000000000000000000000000000000000000000000000000000000000000000000000000000
:4001000000000000000000000000000000000000000000000000000000000000000000000000000000000000000000000000000000000000000000000000000000000000BF
:0200000490006A
:0400000000004005B7
:0200000490105A
:04000000BC90ACAF55
:0200000490303A
:02000000256B6E
:0200000490402A
:4000000000000000000000000000000000000000000000000000000000000000000000000000000000000000000000000000000000000000000000000000000000000000C0
:400040000000000000000000000000000000000000000000000000000000000000000000000000000000000000000000000000000000000000000000000000000000000080
:400080000000000000000000000000000000000000000000000000000000000000000000000000000000000000000000000000000000000000000000000000000000000040
:4000C0000000000000000000000000000000000000000000000000000000000000000000000000000000000000000000000000000000000000000000000000000000000000
:0200000490501A
:0C00000000012E16106900012E1B35D4E3
:00000001FF